{
  "contractName": "SampleToken",
  "abi": [
    {
      "inputs": [
        {
          "internalType": "uint256",
          "name": "_totalSupply",
          "type": "uint256"
        },
        {
          "internalType": "uint256",
          "name": "_decimals",
          "type": "uint256"
        },
        {
          "internalType": "string",
          "name": "_name",
          "type": "string"
        },
        {
          "internalType": "string",
          "name": "_symbol",
          "type": "string"
        }
      ],
      "stateMutability": "nonpayable",
      "type": "constructor"
    },
    {
      "anonymous": false,
      "inputs": [
        {
          "indexed": true,
          "internalType": "address",
          "name": "owner",
          "type": "address"
        },
        {
          "indexed": true,
          "internalType": "address",
          "name": "spender",
          "type": "address"
        },
        {
          "indexed": false,
          "internalType": "uint256",
          "name": "value",
          "type": "uint256"
        }
      ],
      "name": "Approval",
      "type": "event"
    },
    {
      "anonymous": false,
      "inputs": [
        {
          "indexed": true,
          "internalType": "address",
          "name": "from",
          "type": "address"
        },
        {
          "indexed": true,
          "internalType": "address",
          "name": "to",
          "type": "address"
        },
        {
          "indexed": false,
          "internalType": "uint256",
          "name": "value",
          "type": "uint256"
        }
      ],
      "name": "Transfer",
      "type": "event"
    },
    {
      "inputs": [],
      "name": "decimals",
      "outputs": [
        {
          "internalType": "uint256",
          "name": "",
          "type": "uint256"
        }
      ],
      "stateMutability": "view",
      "type": "function"
    },
    {
      "inputs": [],
      "name": "name",
      "outputs": [
        {
          "internalType": "string",
          "name": "",
          "type": "string"
        }
      ],
      "stateMutability": "view",
      "type": "function"
    },
    {
      "inputs": [],
      "name": "symbol",
      "outputs": [
        {
          "internalType": "string",
          "name": "",
          "type": "string"
        }
      ],
      "stateMutability": "view",
      "type": "function"
    },
    {
      "inputs": [],
      "name": "totalSupply_",
      "outputs": [
        {
          "internalType": "uint256",
          "name": "",
          "type": "uint256"
        }
      ],
      "stateMutability": "view",
      "type": "function"
    },
    {
      "inputs": [],
      "name": "totalSupply",
      "outputs": [
        {
          "internalType": "uint256",
          "name": "",
          "type": "uint256"
        }
      ],
      "stateMutability": "view",
      "type": "function"
    },
    {
      "inputs": [
        {
          "internalType": "address",
          "name": "_tokenOwner",
          "type": "address"
        }
      ],
      "name": "balanceOf",
      "outputs": [
        {
          "internalType": "uint256",
          "name": "",
          "type": "uint256"
        }
      ],
      "stateMutability": "view",
      "type": "function"
    },
    {
      "inputs": [
        {
          "internalType": "address",
          "name": "receiver",
          "type": "address"
        },
        {
          "internalType": "uint256",
          "name": "numTokens",
          "type": "uint256"
        }
      ],
      "name": "transfer",
      "outputs": [
        {
          "internalType": "bool",
          "name": "",
          "type": "bool"
        }
      ],
      "stateMutability": "nonpayable",
      "type": "function"
    },
    {
      "inputs": [
        {
          "internalType": "address",
          "name": "delegate",
          "type": "address"
        },
        {
          "internalType": "uint256",
          "name": "numTokens",
          "type": "uint256"
        }
      ],
      "name": "approve",
      "outputs": [
        {
          "internalType": "bool",
          "name": "",
          "type": "bool"
        }
      ],
      "stateMutability": "nonpayable",
      "type": "function"
    },
    {
      "inputs": [
        {
          "internalType": "address",
          "name": "owner",
          "type": "address"
        },
        {
          "internalType": "address",
          "name": "delegate",
          "type": "address"
        }
      ],
      "name": "allowance",
      "outputs": [
        {
          "internalType": "uint256",
          "name": "",
          "type": "uint256"
        }
      ],
      "stateMutability": "view",
      "type": "function"
    },
    {
      "inputs": [
        {
          "internalType": "address",
          "name": "owner",
          "type": "address"
        },
        {
          "internalType": "address",
          "name": "buyer",
          "type": "address"
        },
        {
          "internalType": "uint256",
          "name": "numTokens",
          "type": "uint256"
        }
      ],
      "name": "transferFrom",
      "outputs": [
        {
          "internalType": "bool",
          "name": "",
          "type": "bool"
        }
      ],
      "stateMutability": "nonpayable",
      "type": "function"
    }
  ],
  "bytecode": "0x60806040523480156200001157600080fd5b50604051620016ed380380620016ed83398181016040528101906200003791906200034f565b836000819055508260018190555081600290805190602001906200005d929190620000c7565b50806003908051906020019062000076929190620000c7565b50600054600460003373ffffffffffffffffffffffffffffffffffffffff1673ffffffffffffffffffffffffffffffffffffffff168152602001908152602001600020819055505050505062000464565b828054620000d5906200042e565b90600052602060002090601f016020900481019282620000f9576000855562000145565b82601f106200011457805160ff191683800117855562000145565b8280016001018555821562000145579182015b828111156200014457825182559160200191906001019062000127565b5b50905062000154919062000158565b5090565b5b808211156200017357600081600090555060010162000159565b5090565b6000604051905090565b600080fd5b600080fd5b6000819050919050565b620001a0816200018b565b8114620001ac57600080fd5b50565b600081519050620001c08162000195565b92915050565b600080fd5b600080fd5b6000601f19601f8301169050919050565b7f4e487b7100000000000000000000000000000000000000000000000000000000600052604160045260246000fd5b6200021b82620001d0565b810181811067ffffffffffffffff821117156200023d576200023c620001e1565b5b80604052505050565b60006200025262000177565b905062000260828262000210565b919050565b600067ffffffffffffffff821115620002835762000282620001e1565b5b6200028e82620001d0565b9050602081019050919050565b60005b83811015620002bb5780820151818401526020810190506200029e565b83811115620002cb576000848401525b50505050565b6000620002e8620002e28462000265565b62000246565b905082815260208101848484011115620003075762000306620001cb565b5b620003148482856200029b565b509392505050565b600082601f830112620003345762000333620001c6565b5b815162000346848260208601620002d1565b91505092915050565b600080600080608085870312156200036c576200036b62000181565b5b60006200037c87828801620001af565b94505060206200038f87828801620001af565b935050604085015167ffffffffffffffff811115620003b357620003b262000186565b5b620003c1878288016200031c565b925050606085015167ffffffffffffffff811115620003e557620003e462000186565b5b620003f3878288016200031c565b91505092959194509250565b7f4e487b7100000000000000000000000000000000000000000000000000000000600052602260045260246000fd5b600060028204905060018216806200044757607f821691505b602082108114156200045e576200045d620003ff565b5b50919050565b61127980620004746000396000f3fe608060405234801561001057600080fd5b506004361061009e5760003560e01c8063324536eb11610066578063324536eb1461015d57806370a082311461017b57806395d89b41146101ab578063a9059cbb146101c9578063dd62ed3e146101f95761009e565b806306fdde03146100a3578063095ea7b3146100c157806318160ddd146100f157806323b872dd1461010f578063313ce5671461013f575b600080fd5b6100ab610229565b6040516100b89190610d75565b60405180910390f35b6100db60048036038101906100d69190610e30565b6102b7565b6040516100e89190610e8b565b60405180910390f35b6100f961041b565b6040516101069190610eb5565b60405180910390f35b61012960048036038101906101249190610ed0565b610424565b6040516101369190610e8b565b60405180910390f35b61014761088c565b6040516101549190610eb5565b60405180910390f35b610165610892565b6040516101729190610eb5565b60405180910390f35b61019560048036038101906101909190610f23565b610898565b6040516101a29190610eb5565b60405180910390f35b6101b36108e1565b6040516101c09190610d75565b60405180910390f35b6101e360048036038101906101de9190610e30565b61096f565b6040516101f09190610e8b565b60405180910390f35b610213600480360381019061020e9190610f50565b610c02565b6040516102209190610eb5565b60405180910390f35b6002805461023690610fbf565b80601f016020809104026020016040519081016040528092919081815260200182805461026290610fbf565b80156102af5780601f10610284576101008083540402835291602001916102af565b820191906000526020600020905b81548152906001019060200180831161029257829003601f168201915b505050505081565b600082600073ffffffffffffffffffffffffffffffffffffffff168173ffffffffffffffffffffffffffffffffffffffff16141561032a576040517f08c379a00000000000000000000000000000000000000000000000000000000081526004016103219061103d565b60405180910390fd5b82600560003373ffffffffffffffffffffffffffffffffffffffff1673ffffffffffffffffffffffffffffffffffffffff16815260200190815260200160002060008673ffffffffffffffffffffffffffffffffffffffff1673ffffffffffffffffffffffffffffffffffffffff168152602001908152602001600020819055508373ffffffffffffffffffffffffffffffffffffffff163373ffffffffffffffffffffffffffffffffffffffff167f8c5be1e5ebec7d5bd14f71427d1e84f3dd0314c0f7b2291e5b200ac8c7c3b925856040516104089190610eb5565b60405180910390a3600191505092915050565b60008054905090565b60008382600460008373ffffffffffffffffffffffffffffffffffffffff1673ffffffffffffffffffffffffffffffffffffffff168152602001908152602001600020548111156104aa576040517f08c379a00000000000000000000000000000000000000000000000000000000081526004016104a1906110a9565b60405180910390fd5b853385600560008473ffffffffffffffffffffffffffffffffffffffff1673ffffffffffffffffffffffffffffffffffffffff16815260200190815260200160002060008373ffffffffffffffffffffffffffffffffffffffff1673ffffffffffffffffffffffffffffffffffffffff1681526020019081526020016000205481111561056c576040517f08c379a00000000000000000000000000000000000000000000000000000000081526004016105639061113b565b60405180910390fd5b87600073ffffffffffffffffffffffffffffffffffffffff168173ffffffffffffffffffffffffffffffffffffffff1614156105dd576040517f08c379a00000000000000000000000000000000000000000000000000000000081526004016105d49061103d565b60405180910390fd5b61062f88600460008d73ffffffffffffffffffffffffffffffffffffffff1673ffffffffffffffffffffffffffffffffffffffff16815260200190815260200160002054610c8990919063ffffffff16565b600460008c73ffffffffffffffffffffffffffffffffffffffff1673ffffffffffffffffffffffffffffffffffffffff1681526020019081526020016000208190555061070188600560008d73ffffffffffffffffffffffffffffffffffffffff1673ffffffffffffffffffffffffffffffffffffffff16815260200190815260200160002060003373ffffffffffffffffffffffffffffffffffffffff1673ffffffffffffffffffffffffffffffffffffffff16815260200190815260200160002054610c8990919063ffffffff16565b600560008c73ffffffffffffffffffffffffffffffffffffffff1673ffffffffffffffffffffffffffffffffffffffff16815260200190815260200160002060003373ffffffffffffffffffffffffffffffffffffffff1673ffffffffffffffffffffffffffffffffffffffff168152602001908152602001600020819055506107d388600460008c73ffffffffffffffffffffffffffffffffffffffff1673ffffffffffffffffffffffffffffffffffffffff16815260200190815260200160002054610cb090919063ffffffff16565b600460008b73ffffffffffffffffffffffffffffffffffffffff1673ffffffffffffffffffffffffffffffffffffffff168152602001908152602001600020819055508873ffffffffffffffffffffffffffffffffffffffff168a73ffffffffffffffffffffffffffffffffffffffff167fddf252ad1be2c89b69c2b068fc378daa952ba7f163c4a11628f55a4df523b3ef8a6040516108739190610eb5565b60405180910390a3600196505050505050509392505050565b60015481565b60005481565b6000600460008373ffffffffffffffffffffffffffffffffffffffff1673ffffffffffffffffffffffffffffffffffffffff168152602001908152602001600020549050919050565b600380546108ee90610fbf565b80601f016020809104026020016040519081016040528092919081815260200182805461091a90610fbf565b80156109675780601f1061093c57610100808354040283529160200191610967565b820191906000526020600020905b81548152906001019060200180831161094a57829003601f168201915b505050505081565b60003382600460008373ffffffffffffffffffffffffffffffffffffffff1673ffffffffffffffffffffffffffffffffffffffff168152602001908152602001600020548111156109f5576040517f08c379a00000000000000000000000000000000000000000000000000000000081526004016109ec906110a9565b60405180910390fd5b84600073ffffffffffffffffffffffffffffffffffffffff168173ffffffffffffffffffffffffffffffffffffffff161415610a66576040517f08c379a0000000000000000000000000000000000000000000000000000000008152600401610a5d9061103d565b60405180910390fd5b610ab885600460003373ffffffffffffffffffffffffffffffffffffffff1673ffffffffffffffffffffffffffffffffffffffff16815260200190815260200160002054610c8990919063ffffffff16565b600460003373ffffffffffffffffffffffffffffffffffffffff1673ffffffffffffffffffffffffffffffffffffffff16815260200190815260200160002081905550610b4d85600460008973ffffffffffffffffffffffffffffffffffffffff1673ffffffffffffffffffffffffffffffffffffffff16815260200190815260200160002054610cb090919063ffffffff16565b600460008873ffffffffffffffffffffffffffffffffffffffff1673ffffffffffffffffffffffffffffffffffffffff168152602001908152602001600020819055508573ffffffffffffffffffffffffffffffffffffffff163373ffffffffffffffffffffffffffffffffffffffff167fddf252ad1be2c89b69c2b068fc378daa952ba7f163c4a11628f55a4df523b3ef87604051610bed9190610eb5565b60405180910390a36001935050505092915050565b6000600560008473ffffffffffffffffffffffffffffffffffffffff1673ffffffffffffffffffffffffffffffffffffffff16815260200190815260200160002060008373ffffffffffffffffffffffffffffffffffffffff1673ffffffffffffffffffffffffffffffffffffffff16815260200190815260200160002054905092915050565b600082821115610c9c57610c9b61115b565b5b8183610ca891906111b9565b905092915050565b6000808284610cbf91906111ed565b905083811015610cd257610cd161115b565b5b8091505092915050565b600081519050919050565b600082825260208201905092915050565b60005b83811015610d16578082015181840152602081019050610cfb565b83811115610d25576000848401525b50505050565b6000601f19601f8301169050919050565b6000610d4782610cdc565b610d518185610ce7565b9350610d61818560208601610cf8565b610d6a81610d2b565b840191505092915050565b60006020820190508181036000830152610d8f8184610d3c565b905092915050565b600080fd5b600073ffffffffffffffffffffffffffffffffffffffff82169050919050565b6000610dc782610d9c565b9050919050565b610dd781610dbc565b8114610de257600080fd5b50565b600081359050610df481610dce565b92915050565b6000819050919050565b610e0d81610dfa565b8114610e1857600080fd5b50565b600081359050610e2a81610e04565b92915050565b60008060408385031215610e4757610e46610d97565b5b6000610e5585828601610de5565b9250506020610e6685828601610e1b565b9150509250929050565b60008115159050919050565b610e8581610e70565b82525050565b6000602082019050610ea06000830184610e7c565b92915050565b610eaf81610dfa565b82525050565b6000602082019050610eca6000830184610ea6565b92915050565b600080600060608486031215610ee957610ee8610d97565b5b6000610ef786828701610de5565b9350506020610f0886828701610de5565b9250506040610f1986828701610e1b565b9150509250925092565b600060208284031215610f3957610f38610d97565b5b6000610f4784828501610de5565b91505092915050565b60008060408385031215610f6757610f66610d97565b5b6000610f7585828601610de5565b9250506020610f8685828601610de5565b9150509250929050565b7f4e487b7100000000000000000000000000000000000000000000000000000000600052602260045260246000fd5b60006002820490506001821680610fd757607f821691505b60208210811415610feb57610fea610f90565b5b50919050565b7f496e76616c696420616464726573730000000000000000000000000000000000600082015250565b6000611027600f83610ce7565b915061103282610ff1565b602082019050919050565b600060208201905081810360008301526110568161101a565b9050919050565b7f496e73756666696369656e742042616c616e636520666f722055736572000000600082015250565b6000611093601d83610ce7565b915061109e8261105d565b602082019050919050565b600060208201905081810360008301526110c281611086565b9050919050565b7f496e73756666696369656e7420616c6c6f77616e636520666f7220746869732060008201527f557365722066726f6d206f776e65720000000000000000000000000000000000602082015250565b6000611125602f83610ce7565b9150611130826110c9565b604082019050919050565b6000602082019050818103600083015261115481611118565b9050919050565b7f4e487b7100000000000000000000000000000000000000000000000000000000600052600160045260246000fd5b7f4e487b7100000000000000000000000000000000000000000000000000000000600052601160045260246000fd5b60006111c482610dfa565b91506111cf83610dfa565b9250828210156111e2576111e161118a565b5b828203905092915050565b60006111f882610dfa565b915061120383610dfa565b9250827fffffffffffffffffffffffffffffffffffffffffffffffffffffffffffffffff038211156112385761123761118a565b5b82820190509291505056fea2646970667358221220f2e22601233703cb11755d380848064242e8a2f376d173a971f626fe825ccf1164736f6c634300080c0033",
  "immutableReferences": {},
  "source": "// SPDX-License-Identifier: MIT\r\n//pragma solidity >=0.4.22 <0.9.0;\r\n\r\n//import \"@openzeppelin/contracts/token/ERC20/ERC20.sol\";\r\n\r\n// contract myERC20{\r\n\r\n//     // event Transfer (address indexed from, address indexed to, uint256 value);\r\n//     // event Approval (address indexed owner, address indexed spender, uint256 value);\r\n\r\n//     constructor(uint256 _supply) ERC20(\"Zazzle\", \"ZAZL\") {\r\n//         _mint(msg.sender, _supply * (10 ** decimals()));\r\n//     }\r\n// }\r\n\r\npragma solidity ^0.8.0;\r\n\r\ninterface IERC20 {\r\n\r\n    function totalSupply() external view returns (uint256);\r\n    function balanceOf(address account) external view returns (uint256);\r\n    function allowance(address owner, address spender) external view returns (uint256);\r\n\r\n    function transfer(address recipient, uint256 amount) external returns (bool);\r\n    function approve(address spender, uint256 amount) external returns (bool);\r\n    function transferFrom(address sender, address recipient, uint256 amount) external returns (bool);\r\n\r\n\r\n    event Transfer(address indexed from, address indexed to, uint256 value);\r\n    event Approval(address indexed owner, address indexed spender, uint256 value);\r\n}\r\n\r\n\r\ncontract SampleToken is IERC20 {\r\n    using SafeMath for uint256;\r\n\r\n    uint256 public totalSupply_;\r\n    uint256 public decimals;\r\n    string public name;\r\n    string public symbol;\r\n\r\n    mapping(address => uint256) balances;\r\n    mapping(address => mapping (address => uint256)) allowed; // {user: { user2 : amount, user3 : amount2 ... }}\r\n\r\n    modifier sufficientBalance(address _spender, uint _value){\r\n        require(_value <= balances[_spender], \"Insufficient Balance for User\");\r\n        _;\r\n    }\r\n\r\n    modifier sufficientApproval(address _owner, address _spender, uint _value){\r\n        require( _value <= allowed[_owner][_spender], \"Insufficient allowance for this User from owner\");\r\n        _;\r\n    }\r\n\r\n    modifier validAddress(address _address) {\r\n        require(_address != address(0), \"Invalid address\");\r\n        _;\r\n    }\r\n\r\n    constructor(uint256 _totalSupply, uint _decimals, string memory _name, string memory _symbol){\r\n        totalSupply_ = _totalSupply;\r\n        decimals = _decimals;\r\n        name = _name;\r\n        symbol = _symbol;\r\n\r\n        balances[msg.sender] = totalSupply_;\r\n    }\r\n\r\n    function totalSupply() public override view returns (uint256) {\r\n        return totalSupply_;\r\n    }\r\n\r\n    function balanceOf(address _tokenOwner) public override view returns (uint256) {\r\n        return balances[_tokenOwner];\r\n    }\r\n\r\n    function transfer(address receiver, uint256 numTokens) public override sufficientBalance(msg.sender, numTokens) validAddress(receiver) returns (bool) {\r\n        balances[msg.sender] = balances[msg.sender].sub(numTokens);\r\n        balances[receiver] = balances[receiver].add(numTokens);\r\n        emit Transfer(msg.sender, receiver, numTokens);\r\n\r\n        return true;\r\n    }\r\n\r\n    function approve(address delegate, uint256 numTokens) public override validAddress(delegate) returns (bool) {\r\n        allowed[msg.sender][delegate] = numTokens;\r\n        emit Approval(msg.sender, delegate, numTokens);\r\n\r\n        return true;\r\n    }\r\n\r\n    function allowance(address owner, address delegate) public override view returns (uint) {\r\n        return allowed[owner][delegate];\r\n    }\r\n\r\n    function transferFrom(address owner, address buyer, uint256 numTokens) public override sufficientBalance(owner, numTokens) sufficientApproval(owner, msg.sender, numTokens) validAddress(buyer) returns (bool) {\r\n        balances[owner] = balances[owner].sub(numTokens); //reduce allocators balance\r\n        allowed[owner][msg.sender] = allowed[owner][msg.sender].sub(numTokens); //reduce your allowance\r\n        balances[buyer] = balances[buyer].add(numTokens);\r\n        emit Transfer(owner, buyer, numTokens);\r\n\r\n        return true;\r\n    }\r\n}\r\n\r\nlibrary SafeMath {\r\n    function sub(uint256 a, uint256 b) internal pure returns (uint256) {\r\n      assert(b <= a);\r\n      return a - b;\r\n    }\r\n\r\n    function add(uint256 a, uint256 b) internal pure returns (uint256) {\r\n      uint256 c = a + b;\r\n      assert(c >= a);\r\n      return c;\r\n    }\r\n}\r\n",
  "sourcePath": "C:\\Users\\elsha\\Documents\\Engineering\\Data Science, ML and programming\\Projects\\BLOCKCHAIN\\create-ERC20-ERC721-tokens\\zuriERC20\\contracts\\ZuriERC20.sol",
  "compiler": {
    "name": "solc",
    "version": "0.8.12+commit.f00d7308.Emscripten.clang"
  },
  "schemaVersion": "3.4.6",
  "updatedAt": "2022-03-20T00:24:43.317Z",
  "devdoc": {
    "kind": "dev",
    "methods": {},
    "version": 1
  },
  "userdoc": {
    "kind": "user",
    "methods": {},
    "version": 1
  }
}